:1000000080740020A12C000049D701008D2C000035
:100010008D2C00008D2C00008D2C000000000000B5
:10002000000000000000000000000000952D00000E
:100030008D2C0000000000001D2D0000A1790100A2
:10004000652F0000652F0000652F0000652F000060
:10005000652F0000652F0000652F0000652F000050
:10006000652F0000652F0000652F0000652F000040
:10007000652F0000652F0000652F0000652F000030
:04026000652F000006
:1002700001F0FF01102A2BDB10F0070F08D010F857
:10028000013B013A8B422DD010F0070F42B3F6D15B
:10029000F0B441EA012141EA014122F007047FF074
:1002A00000070023F0E80256083C85EA010586EACB
:1002B000010685FA47F5A3FA87F586FA47F6A5FA07
:1002C00087F68EB9EED1F0BC01F0FF0102F0070213
:1002D00032B110F8013B013A83EA010313B1F8D1BE
:1002E0000020704701387047002D06BF354603389F
:1002F000073815F0010F07D1013015F4807F02BFD8
:10030000013015F4C03F0130F0BC0138704700BF28
:100310004FF0FF0C1CEAD0521EBF1CEAD15392EAE8
:100320000C0F93EA0C0F6FD01A4480EA010C4002C4
:1003300018BF5FEA41211ED04FF0006343EA50101E
:1003400043EA5111A0FB01310CF00040B1F5000F60
:100350003EBF490041EAD3715B0040EA010062F10F
:100360007F02FD2A1DD8B3F1004F40EBC25008BFF9
:1003700020F00100704790F0000F0CF0004C08BF17
:1003800049024CEA502040EA51207F3AC2BFD2F1E4
:10039000FF0340EAC250704740F400004FF00003F2
:1003A000013A5DDC12F1190FDCBF00F0004070472C
:1003B000C2F10002410021FA02F1C2F1200200FA6A
:1003C00002FC5FEA310040F1000053EA4C0308BF31
:1003D00020EADC70704792F0000F00F0004C02BF82
:1003E000400010F4000F013AF9D040EA0C0093F0FD
:1003F000000F01F0004C02BF490011F4000F013B57
:10040000F9D041EA0C018FE70CEAD15392EA0C0FC4
:1004100018BF93EA0C0F0AD030F0004C18BF31F02F
:10042000004CD8D180EA010000F00040704790F005
:10043000000F17BF90F0004F084691F0000F91F0A9
:10044000004F14D092EA0C0F01D142020FD193EA6F
:100450000C0F03D14B0218BF084608D180EA0100F7
:1004600000F0004040F0FE4040F40000704740F0D3
:10047000FE4040F44000704780F0004002E000BFC2
:1004800081F0004142001FBF5FEA410392EA030F7F
:100490007FEA226C7FEA236C6AD04FEA1262D2EBC9
:1004A0001363C1BFD218414048404140B8BF5B42CE
:1004B000192B88BF704710F0004F40F4000020F067
:1004C0007F4018BF404211F0004F41F4000121F07D
:1004D0007F4118BF494292EA030F3FD0A2F10102C7
:1004E00041FA03FC10EB0C00C3F1200301FA03F105
:1004F00000F0004302D5494260EB4000B0F5000F28
:1005000013D3B0F1807F06D340084FEA310102F1E6
:100510000102FE2A51D2B1F1004F40EBC25008BF98
:1005200020F0010040EA03007047490040EB000062
:10053000013A28BFB0F5000FEDD2B0FA80FCACF163
:10054000080CB2EB0C0200FA0CF0AABF00EBC25090
:1005500052421843BCBFD0401843704792F0000F7E
:1005600081F4000106BF80F400000132013BB5E7D1
:100570004FEA41037FEA226C18BF7FEA236C21D047
:1005800092EA030F04D092F0000F08BF08467047AC
:1005900090EA010F1CBF0020704712F07F4F04D17A
:1005A000400028BF40F00040704712F100723CBF8D
:1005B00000F50000704700F0004343F0FE4040F4B7
:1005C000000070477FEA226216BF08467FEA236375
:1005D0000146420206BF5FEA412390EA010F40F460
:1005E000800070474FF0000304E000BF10F00043AC
:1005F00048BF40425FEA000C08BF704743F0964393
:1006000001464FF000001CE050EA010208BF7047AD
:100610004FF000030AE000BF50EA010208BF704734
:1006200011F0004302D5404261EB41015FEA010C49
:1006300002BF84460146002043F0B64308BFA3F141
:100640008053A3F50003BCFA8CF2083AA3EBC25323
:1006500010DB01FA02FC634400FA02FCC2F1200242
:10066000BCF1004F20FA02F243EB020008BF20F079
:100670000100704702F1200201FA02FCC2F12002DF
:1006800050EA4C0021FA02F243EB020008BF20EAD4
:10069000DC7070474FEA4002B2F1FE4F0FD34FF0CB
:1006A0009E03B3EB12620DD94FEA002343F00043DF
:1006B00010F0004F23FA02F018BF404270474FF08D
:1006C0000000704712F1610F01D1420205D110F014
:1006D000004008BF6FF0004070474FF000007047C7
:1006E0007BB972B90029BEBF00204FF0004106E07F
:1006F00008BF00281CBF6FF000414FF0FF3000F032
:1007000057B8ADF1080C6DE904CE002909DB002BC8
:100710001ADB00F057F8DDF804E0DDE9022304B04D
:100720007047404261EB4101002B1BDB00F04AF8AF
:10073000DDF804E0DDE9022304B0404261EB410151
:10074000524263EB43037047524263EB430300F0B2
:1007500039F8DDF804E0DDE9022304B0404261EB42
:1007600041017047524263EB430300F02BF8DDF880
:1007700004E0DDE9022304B0524263EB4303704717
:1007800053B94AB9002908BF00281CBF4FF0FF31F8
:100790004FF0FF3000F00CB8ADF1080C6DE904CE5D
:1007A00000F010F8DDF804E0DDE9022304B0704742
:1007B000704700BF034613F8012B002AFBD1181A1B
:1007C000013870472DE9F04786468C460846089E5A
:1007D000154674461946002B40F0C2808542B2FA95
:1007E00082F245D94AB1C2F1200300FA02FC2EFA86
:1007F00003F3954043EA0C0C94404FEA154EA8B21F
:10080000BCFBFEF8230C0EFB18CC08FB00F943EAF6
:100810000C43994528D9EB1808F1FF3704D29945C4
:1008200002D9A8F102072B44A3EB0903A4B2B3FB3E
:10083000FEFC0EFB1C330CFB00F044EA0344A04218
:1008400014D92C190CF1FF3304D2A04202D9ACF117
:1008500002032C44241A43EA07401EB1D44000236B
:1008600034607360BDE8F0874746DDE76346F1E733
:1008700092BB431B01214FEA154EAFB2B3FBFEFC06
:10088000200C0EFB1C330CFB07F840EA0343984591
:1008900062D9EB180CF1FF3004D2984502D9ACF1C3
:1008A00002002B44A3EB0803A4B2B3FBFEFC0EFB37
:1008B0001C330CFB07F744EA0344A7424ED92C191A
:1008C0000CF1FF3304D2A74202D9ACF102032C444D
:1008D000E41B43EA0040C0E7C2F1200320FA03F121
:1008E000954090402EFA03F303434FEA154EAFB202
:1008F000B1FBFEFC0EFB1C10190C0CFB07F841EAC7
:100900000041884504FA02F422D969180CF1FF303D
:1009100004D2884502D9ACF102002944A1EB0801B8
:100920009BB2B1FBFEFC0EFB1C110CFB07F743EA6C
:1009300001439F420ED9EB180CF1FF3104D29F42C4
:1009400002D9ACF102012B44DB1B41EA004192E7E2
:100950006046E3E76146F7E76046A3E76346B7E72B
:10096000834206D916B9002108467BE7C6E900E0B4
:10097000F9E7B3FA83F78FB9834201D3724508D8F8
:10098000BEEB020460EB030301209C461EB900216C
:1009900068E73846FAE7C6E9004CF8E7C7F1200CEB
:1009A000BB4022FA0CF41C432EFA0CF120FA0CF393
:1009B000B84001434FEA14490EFA07F5B3FBF9F8C2
:1009C0001FFA84FE09FB18300B0C08FB0EFA43EAF1
:1009D00000439A4502FA07F240D9E31808F1FF30C4
:1009E00004D29A4502D9A8F102002344A3EB0A03DA
:1009F00089B2B3FBF9F809FB183308FB0EFE41EA94
:100A000003418E452CD9611808F1FF3304D28E457D
:100A100002D9A8F10203214443EA0040A0FB029856
:100A2000A1EB0E014145CE46434602D306D14D45CA
:100A300004D2B9EB020E68EB04030138002EA6D0F5
:100A4000B5EB0E0261EB030101FA0CFC22FA07F38D
:100A50004CEA0303F940C6E9003198E74046C5E790
:100A60004346D9E700000000F7B5456807692A69E1
:100A7000696913682C680B431360AA8BAB69304912
:100A8000203203F00F0343F0400341F82230BF232C
:100A900023750646204622F0B5F8AB6843F0C04304
:100AA00043F00403236022F0ADF801AA686A002134
:100AB00022F095F8002837DB019B0022197918688D
:100AC00016F0EEFE00282FDB1E4B7B604FF4403308
:100AD0006360204622F096F868681B4B010B000506
:100AE000C01841F1000114A3D3E90023FFF748FE29
:100AF0004FF6FF72431E61F10001934271F1000154
:100B000014D2404280B2A081204622F07BF86B686C
:100B10003B602B6A30469847236843F00203204627
:100B2000236022F06FF8002003B0F0BD6FF02100C9
:100B3000FAE700BFAFF30080000E270700000000B7
:100B4000001C004000010300008793030000000028
:100B50002DE9F843D0F804800669D8F80040204613
:100B600022F050F823686FF34103236022F04AF823
:100B7000CA790D465AB9F2712B79D4F800C0616870
:100B8000012BC1F3403706D0022B07D023B16FF001
:100B90008500BDE8F8831F46184601E0174601208E
:100BA00033716B79012B4BD0032BF0D14FF001093E
:100BB0007371AA79042AEAD860F31B6CB271D8F871
:100BC0000880C4F800C0204622F01CF8531D03F032
:100BD000070343EA891308F0010821F4055243EAA8
:100BE000082322F0070243EA4733134363F30F015C
:100BF000616022F007F82868174B010B0005C01848
:100C000041F1000112A3D3E90023FFF7B9FD4FF62C
:100C1000FF72431E61F10001934271F1000112D293
:100C2000404280B2A081204621F0ECFF2B68336067
:100C3000236843F00203236021F0E4FF0020A8E7CB
:100C40004FF00009B4E76FF02100A2E7AFF3008096
:100C5000000E270700000000008793032DE9F043F2
:100C600093B006F089FD044620B9854C20461CF05F
:100C70007AFBFBE781680431102308AA012008F001
:100C80001DFF01467F481CF06EFB7F4B18689B8858
:100C9000069006A90622ADF81C30204603231DF05D
:100CA000E7FD204608F01CFC78481CF05CFBA168BE
:100CB0000431102308AA012008F000FF744D0146FA
:100CC00074481CF050FB296873481CF04CFB2B68DF
:100CD000724819681CF047FB714C204622F073F8EB
:100CE00038B970481CF03FFB4FF0FF3013B0BDE83F
:100CF000F083D4E90186D8F800302769D8050ED4EE
:100D000069496A4A6A4840F2FD331CF057FB69485A
:100D10001CF054FB40F2FD3164481CF046FB3B687C
:100D2000654A43F480733B60336808212046984746
:100D3000D8F80030D9050CD45B495C4A5C4840F2D5
:100D40008E631CF03BFB5B481CF038FB40F28E616D
:100D5000E2E73B68DA054FF4807154BFF36833690A
:100D600020469847286822F02EF808B95348B9E77A
:100D70005348DFF850811CF0F6FA032405AE012732
:100D80000323CDE90C6728688DF838309DF838309A
:100D9000826843F002038DF83830D2F80890A3B28D
:100DA00001220CA9C84718B9214640461CF0DBFABD
:100DB0000134782CE4D113F01DFC002836DA424BC4
:100DC00002930023CDE90033039001223F49DFF86D
:100DD0000081404C18461CF064F94FF07C570DF12F
:100DE000130200230C9201228DF813300D928DF81E
:100DF00038300222072328680F9610928DF844306D
:100E00009DF84430816813438DF84430D1F8089040
:100E10004F230CA9C847014690B12F481CF0A3FAF4
:100E20004FF4FA6000211AF0C7F8D8E72B4B1B8863
:100E300003932B4B02930023CDE900330322C5E734
:100E40009DF815209DF8141040461CF08CFABDF852
:100E500014305BBAC3F3C8101B0448BF40F47E4093
:100E600000B2FFF7C3FB3946FFF752FAFFF712FC57
:100E700001B21C4821801CF076FA42F21070D1E7D2
:100E80008D44020062440200E43E02004444020039
:100E90006C0000205E440200724402007F440200A5
:100EA0007436020094440200DE440200AD440200A5
:100EB0001C4502003945020001000A004B450200B2
:100EC00061450200744502008C450200903D02001D
:100ED000EC45020078310020CB450200C806002016
:100EE000AC4502002446020038B51C46094D0A4BA9
:100EF0000A49B3F9002028461BF076FDC823238059
:100F0000E5602846FFF756FC012320612375002089
:100F100038BD00BF7A310020783100203B46020006
:100F200070B50C46002934D002680B1F9B1AD908F3
:100F300023F0070313445D88E8070DD4154A1649CA
:100F40001648AF231CF03AFA214615481CF036FA31
:100F5000AF2110481CF029FA10461CF0B1F80844E3
:100F600032F83060801B81420BD00A4A0D490B4891
:100F7000B7231CF023FA21460B481CF01FFAB721B7
:100F8000E7E725F001055D80BDE8704010461CF0E4
:100F900054B970BDAC470200CF4702001C450200A7
:100FA000E0470200184802003E480200B2F5802FD8
:100FB0002DE9F0410ED33C493C4A3D4840F2132311
:100FC0001CF0FCF93B481CF0F9F940F213213748BA
:100FD0001CF0EBF9042A0CD83749344A344840F263
:100FE0001A231CF0EBF935481CF0E8F940F21A21FD
:100FF000EDE7043ACD1D8E1825F0070526F007060B
:10100000761B172E4FEAD6070CD82D49274A2848B9
:1010100040F223231CF0D2F928481CF0CFF940F20B
:101020002321D4E7B7FA87F4C4F12002C4F12404E1
:10103000A4000734E408631C4FF00008BB420560BD
:10104000AF60C5F80C800CD91E49184A18484FF4F7
:101050000E731CF0B3F919481CF0B0F94FF40E717F
:10106000B5E74146920005F1100022F098F96300BF
:1010700043F001036B8005EBC4023B1B5900A5F84C
:1010800000805180AA1925F83440A2F80280AB53A1
:1010900005EBC70321465A8842F001025A802846D0
:1010A000BDE8F0411CF011B87A480200AC470200DC
:1010B0001C45020090480200A7480200C8480200F0
:1010C000E14802000A4902002DE9F04F91B00546BF
:1010D000009302F004030193C2F3C20301330493AB
:1010E0008307DDF8689002920E4640F0FC81041DF3
:1010F00030B1072909D86FF01B0011B0BDE8F08F9F
:1011000001F007063444C6F10806009B4FF00008C2
:101110004FF0040B591ECDF80C80474643464FF064
:10112000FF32DA460DB1009820600498002800F3E1
:10113000DF809B48DDF800C0844503D3994884458F
:10114000C0F0D680DDF808C0A4EB050E1CF0020F3D
:101150004FEA9E0000F0E7804FF0000CD1E07A28C3
:1011600062D84B280FD847285ED829282DD82528A3
:1011700059D059D820287DD0A0F12309D9F10003F6
:1011800043EB090376E04C382E284DD8DFE800F019
:10119000724C4C4C4C4C4C4C4C4C4C4C4E4C4C4C67
:1011A0004C4C4C4C4C5C4C4E4E5C5C5C724E6F4CF0
:1011B000724C184E184C4C817E4E4C4C4E4C7E005E
:1011C000002000234FF0040B3CE02A384FF0010EC2
:1011D000C0B20EFA00F04FF6DA7E10EA0E0F49D1D7
:1011E00010F0625E30D110F0010343D07046013C34
:1011F0005C44B4FBFBF40BFB04F4002D5ED0AAEBC3
:10120000050EA644B6453FF676AF002868D1BAF180
:10121000040F43D1E14659F8040B20600434CC4656
:101220004FF0040A26E0013A002323E011F8013CC4
:101230006C2B30D111F8023C00206C2B0346C1D13D
:101240004FF0080BDA46D2E70CF1070929F0070C3A
:101250000734FCE802AB24F0070435B105982044BC
:10126000B0423FF648AFC4E900AB083400234FF06A
:10127000080BDA4611F8010F002800F0BC80002BA3
:101280007FF46DAF2528F5D1013201234FF0040B17
:10129000EFE7184695E700200346A8E7BAF1080FE4
:1012A00040F09B800CF1070929F0070CFCE8029A3A
:1012B000C4E9009A08344FF0080ADBE780B9BAF1B4
:1012C000040F02D10CF10409A8E7BAF1080F40F0AD
:1012D00084800CF1070929F0070909F1080CE9E7F6
:1012E0000498E1460138049059F8040B009019E77E
:1012F0000298800748D5A4EB050E4FEA9E004FF0F8
:10130000010CBEF5007F1DD32749284A28484FF419
:101310001F731CF053F827481CF050F84FF41F714E
:1013200022481CF042F80F2F0ED8002D46D007F1AE
:10133000400CEC440CF8200C0CF8102C03980130F5
:10134000039020E00F2F0CD91749184A184840F293
:1013500081231CF033F818481CF030F840F281214A
:10136000DEE7BDB107F1400EEE44C0B20EF8200C2E
:101370000EF8102CBCF1000FE0D060F07F000EF8EA
:10138000200C08F101080137C5F108000434CC46EF
:1013900005906FE7BCF1000F10D00136F3E700BFF6
:1013A000743502004CAC02005F5702003549020060
:1013B0001C4502006349020084490200019802367C
:1013C0000028E0D100980592CDE90631FFF7F2F947
:1013D000DDE90631059A0644D5E7444A44494548C3
:1013E00040F2C6231BF0EAFF514643481BF0E6FFDC
:1013F00040F2C62194E7631BB3F5806F0CD33C49E0
:101400003A4A3C4840F2D2231BF0D8FF3B481BF03D
:10141000D5FF40F2D22183E71DB9A6F10804E018F8
:101420006BE6019A28609B082B709DF80C30C2B1C6
:10143000EB7085F80280B8F1000F05D008A80022F3
:10144000C5F1010C97420ED1C5F101030DF1200940
:101450004FF0000A02930DF1300B574512D1601B7B
:101460004BE66B70E5E710F8013B190608D50CEB6D
:10147000040EB64503F07F033FF63DAE04F8013B92
:101480000132DFE7B8F1000F03D099F90020002AFC
:1014900017DB019BD3B11AF80B2004F8012B0022B3
:1014A000029B18191044B0423FF625AE99F800008F
:1014B00004F8010B00990392204621F048FF039A9B
:1014C00014440AF1010A09F10109C6E799F800205C
:1014D00055F822300093019B45F822300098FFF721
:1014E00069F9421CDCE76FF00D0006E635490200A1
:1014F0005F5702001C4502009E490200B3490200EA
:10150000014B1860704700BFAC00002080B5054655
:101510000E461746984619F0E9FD034622F020F8DA
:10152000DFF81890044649F8003042463046394604
:10153000A84754F8090001F0DBFB00BF08000000D9
:10154000032800B508D922F00BF8094B09221A50DC
:101550004FF0FF305DF804FB30235843054BBFF3D9
:101560005B8F1B58BFF35B8F002BECD00020F1E7A3
:101570000C0000001423002030B5302310494343F1
:1015800008330B44BFF35B8F1A68BFF35B8FB2B1B4
:10159000BFF35B8F541E53E8005F954204D143E8CC
:1015A000004CBCF1000FF6D1BFF35B8FEAD1012AEA
:1015B00005D1302358430A1800230B50536030BD27
:1015C0000C23002038B504461546FFF7B9FF002864
:1015D0000BDB094A59B1302303FB04235B688B42C0
:1015E00005D021F0BDFF054B1D50002038BD302334
:1015F0005C431059FAE700BF0C2300200C000000E8
:101600002DE9F041184E90461F46002435463368B8
:10161000984202D1736899420BD00134042C06F130
:101620003006F4D121F09CFF104B17221A504FF0D6
:10163000FF342046FFF784FF002812DBB8F1000FCB
:1016400005D0302101FB04510C31C8F8001017B946
:101650000120BDE8F081302303FB045520353D60B7
:10166000F6E70020F5E700BF0C2300200C00000087
:1016700038B504461546FFF763FF00280DDB084A1E
:1016800030236343D0184068086015B10C3313440D
:101690002B6030235C43105938BD0020FCE700BFAD
:1016A0000C23002070B54FF0FF331D484FF0FF3280
:1016B0001BF075FE1B4B0025BFF35B8F1A68BFF351
:1016C0005B8F82B10135042D03F13003F4D121F099
:1016D00047FF154B17221A504FF0FF3510481BF0EB
:1016E00060FE284670BD30246C43BFF35B8F53E827
:1016F000000F013043E800010029F8D1BFF35B8FF0
:101700000A4E331932515A609A6204F10C00304487
:1017100021F0C3FB04F12000304421F07EFCDDE722
:101720005C070020142300200C0000000C23002084
:101730002DE9F041164630240F4A44431019115147
:101740004660C362B6B1F368A3B121F009FF0B4F45
:101750000C3450F807801319054640F20512304644
:101760001BF00EFEB8F15F0F04D0EB595F2B08BFE2
:1017700045F80780BDE8F0810C2300200C00000034
:10178000F8B50546FFF7DCFE002824DB3024134FB4
:101790006C4304F10C063E444FF0FF324FF0FF3330
:1017A00030461BF0FCFD3A1953689B688BB1D26A36
:1017B000385912F4404F0AD029469847044630461B
:1017C0001BF0EFFD2846FFF7D7FE2046F8BD9847EF
:1017D000F4E71C46F3E74FF0FF34F6E70C23002054
:1017E000F8B50646DDE906051C461BF0F4FDD0E918
:1017F00000139942B668026914D156F8213004B931
:10180000DB4332EA03002BD022EA03025DB362BB62
:101810001A491B481B4A96231BF0D0FD19489621F4
:101820001BF0C3FD56F8217004B9FF4332EA070CE0
:1018300002D022EA0702E9E756F8237004B9FF4311
:10184000426932EA070008D022EA07021946DDE7BA
:1018500056F8212004B1D24322B901318B42F7D886
:10186000012001E00DB90020F8BD92FAA2F2B2FA0F
:1018700082F202EB41122A60F5E700BF034A020040
:101880001C450200DB4902002DE9F04F0D468BB0EC
:101890009146044658B94749474A484840F2F5132B
:1018A0001BF08CFD40F2F51143481BF07EFD0368F0
:1018B0004BB94349404A41484FF4FB731BF07EFD4E
:1018C0004FF4FB71F0E700F10C06EFF3118A2023CF
:1018D00083F31288BFF36F8F304619F07DFE60B935
:1018E000384A3949354888231BF068FD3146374866
:1018F0001BF064FD88213348D7E7304619F090FE8D
:10190000B9F1000F4AD0002D48D02068A84245D335
:101910006768002297424FEA421B0DD0A36853F834
:101920002230591C01D10132F4E72BB1DB4393FA89
:10193000A3F3B3FA83F39B44A0EB050804AFC345BC
:1019400002D96FF01B0413E003ABCDE900732A4604
:10195000002359462046FFF743FFD8B120460097A1
:1019600001232A4659461BF053FD0024C9F800B054
:10197000304619F03FFEA0B9124A15490F4840F20F
:1019800031131BF01BFD314612481BF017FD40F2CE
:101990003111B0E7039901F1010BD0E76FF01504A5
:1019A000E6E78AF31188BFF36F8F20460BB0BDE8DE
:1019B000F08F00BF704A0200DB4902001C450200A4
:1019C000884A0200184A0200454A02005A4A0200A8
:1019D0009F4A0200B64A02002DE9F0474C1E88B02B
:1019E0000E4690461444054658B93749374A384898
:1019F00040F286231BF0E2FC40F2862133481BF0C4
:101A0000D4FC03684BB93349304A314840F287234C
:101A10001BF0D4FC40F28721F0E700F10C09EFF352
:101A2000118A202383F31288BFF36F8F484619F081
:101A3000D3FD60B9284A2949254888231BF0BEFCFC
:101A4000494627481BF0BAFC88212348D7E7484677
:101A500019F0E6FD56B32B68B34227D3434525D989
:101A6000A34223D9002402AF0194009701233246F8
:101A700041462846FFF7B4FED8B1009723463246C8
:101A8000414628461BF0C4FC484619F0B3FD98B9FE
:101A9000114A14490E4840F231131BF08FFC49469D
:101AA00011481BF08BFC40F23111CEE76FF01504AA
:101AB000EAE76FF00D04E7E78AF31188BFF36F8F51
:101AC000204608B0BDE8F087704A0200DB490200FA
:101AD0001C450200884A0200184A0200454A0200DA
:101AE0005A4A02009F4A0200B64A0200274B9A68EF
:101AF0006FF300029A60264B1A7842F001021A70C6
:101B00005A68D007FCD4234B42F25E129A82DA68FC
:101B1000D107FCD51E4B42F205125A62A3F5406371
:101B2000A02283F8202002221A771A69D205FCD558
:101B300093F830206FF3410283F83020164AD36BBC
:101B4000002BFCD1124B4122C3F88420D3F884200F
:101B50005006FBD5104B114A5A634FF401629A6349
:101B6000022283F83020DA6B002AFCD10A4B1A6C6F
:101B70009107FCD51A6CD207F9D5054B084A1A62B1
:101B80004FF483729A62074A1A63704700600041FB
:101B9000001C004000140040001000404D0E0300E7
:101BA00007010100050120001FB5D0E90123C1682C
:101BB000029164215943B1FBF2F1CDE900210446C1
:101BC00001680648D21A1BF0CEFBD4E9062304496B
:101BD000044804B0BDE810401BF0C5BBCB4A02006E
:101BE000534D02000B4B0200F0B595B0D0F8AC603D
:101BF0000F68054621F01BFA044608B1037833B993
:101C00001A4A2B460B2101A81AF0C4FE01AC694602
:101C1000284621F01AFA024628B1154821461BF041
:101C2000A2FB00230093009BCDE90A460EA9F61AF9
:101C300028460C9621F010FA98B904A821F016FA5B
:101C400058B90E980F9D6424A0FB0401DDE904231C
:101C500004FB0511FEF794FD0D900AA8B84715B0D6
:101C6000F0BD04A821F002FAF7E700BF355D0200DD
:101C7000304B020000B589B0CDE906010E4806A937
:101C800021F073FA05AA0D484FF4006121F0D1F953
:101C9000024670B9059B6421C3F500604143C90A3F
:101CA00002914FF40061CDE90001054905481BF0A0
:101CB0005AFB09B05DF804FBE91B0000005B002043
:101CC000584B02005C4B020010B5044604481BF060
:101CD0004AFB21460348BDE81040FFF7CBBF00BFD9
:101CE000924B0200A91B000038B5054C00250020CE
:101CF000FFF7EAFF2046294619F05EF9F7E700BF33
:101D0000E09304002DE9F84FDFF800A1404FAAEB63
:101D100007038F2B814688460BD93E493E4A3F48F0
:101D20004FF4A6731BF04AFB4FF4A6713A481BF020
:101D30003CFB3B481BF010FC0646002837D13C46D4
:101D400005464FF0010B54452AD93649324A3348EB
:101D50004FF4AC731BF032FB33481BF02FFB4FF4F6
:101D6000AC71E3E7237B83B12368DB680BB12046CA
:101D70009847636883F806B023681B6943B96368B2
:101D80000422196820461BF00CFC01361034DAE7F7
:101D9000204698470028F2D00BFA06F31D43F4E7DB
:101DA000E0D3B9F1000F02D04FF0010A0DB9BDE840
:101DB000F88FA94695FAA5F4B4FA84F40AFA04F364
:101DC000260107EB04146FEA030B25EA0305237BC6
:101DD0005BB1BB591B699BB93E4404227368204622
:101DE000196809EA0B091BF0DCFB002DE2D1B8F100
:101DF000000F03D06420002119F0DEF84D46D5E72E
:101E0000204698470028F0D1E6E700BFA03E020038
:101E1000903E0200E04B0200B34B02001C45020062
:101E2000D4230020104C0200314C0200014B53F827
:101E300020007047EC3E020008B5034608462BB16F
:101E4000044A136000F00AFB002008BD6FF0150083
:101E5000FBE700BFB0000020144A1548002310B56E
:101E60001370144A1360144A4FF47A711360FFF729
:101E7000E3FF124B124918468B4215D91149124AF9
:101E8000124840F227131BF099FA11481BF096FAFA
:101E90000D4840F227111BF088FA1A1A5C681211DB
:101EA000013222711033E7E7F7D310BD7A320020F8
:101EB00049D50100CC230020D0230020903E020011
:101EC000A03E0200104C0200B34B02001C45020071
:101ED000314C020070B5134D297809BB0120FFF782
:101EE00011FF114C114EB44217D91149114A124831
:101EF00040F2C5131BF062FA10481BF05FFA0D4860
:101F000040F2C5111BF051FA63685B791BB123687D
:101F100020469B6898471034E5E7F5D301232B70E2
:101F200070BD00BF7A320020903E0200A03E020049
:101F3000104C0200B34B02001C450200314C020061
:101F400010B5044608481BF007FB5CB1BFF35B8F7C
:101F5000064B53E8001F013943E80012002AF8D16C
:101F6000BFF35B8F10BD00BFCC230020D023002027
:101F700070B5124B124C1B68124E05469847A8606C
:101F8000B44218D91049114A11484FF400731BF09C
:101F900015FA10481BF012FA0C484FF400711BF0B0
:101FA00004FA63685B7923B1236829461B682046DD
:101FB00098471034E4E7F4D370BD00BFB0000020B0
:101FC000903E0200A03E0200104C0200B34B020003
:101FD0001C450200314C0200044A054B9B1AB1EB30
:101FE000D30F34BF52F8310000207047583D020033
:101FF000903E02002DE9F04F87B004AFD7E90EA95B
:102000003D6B04460E4693469846BAF1000F2BD01E
:10201000C7F80490CDF8009010217A6B5346002049
:10202000FFF752F8011E0BDA2849294A294840F2E5
:1020300065131BF0C3F940F2651125481BF0B5F993
:10204000B1F5006F11DB40F2FF730393224B029353
:102050000023CDE900332149022218461BF0C3FAC0
:102060000C37BD46BDE8F08F514604F007040BF075
:10207000070BE40044EA8B1444EA412444EA055483
:1020800017350D4425F00705ADEB050D04ADBAF18C
:10209000000F13D0CDF800907A6B534605F1100075
:1020A000FFF712F8002809DA0849094A09484FF4ED
:1020B000C4731BF083F94FF4C471BEE74346224654
:1020C000314628461BF076FACAE700BF894C020069
:1020D0005D4C02001C450200934C0200783D02005A
:1020E000406820B1034BC01A40F3CF0070474FF057
:1020F000FF307047583D02000EB403B503AB0146F4
:1021000053F8042B0448019301F050F902B05DF834
:1021100004EB03B0704700BF23D60100CA0605D404
:102120008B064CBF02490349FFF7E6BF704700BF6B
:10213000195602004A8802002DE9F04F87B0044684
:102140009DF844600D4690469946002E00F0B180FF
:10215000042E0BD9A949AA4AAA4840F246231BF0EB
:102160002DF940F24621A6481BF01FF9159B03F0FC
:10217000020A03F001030493159B03F0080B03F418
:10218000807305931BF00BFA024600283ED09E494F
:102190002046FFF7B1FF0746BAF1000F09D0159BA3
:1021A00013F0440F34D199492A462046FFF7A4FF83
:1021B0000744049B53B1964B964953F82620964BFF
:1021C0002046002A08BF1A46FFF796FF059B002B02
:1021D0004AD0BBF1000F65D1B8F1000F67D08F492D
:1021E00042462046FFF788FF0546129B3D44002BE0
:1021F0006ED1149B002B40F08380159BDB0700F110
:10220000F78015992046FFF789FFE4E00746C3E70A
:10221000834B18680028CBD0824B4FF47A7A1B6826
:10222000B5FBF3F54FF46163B5FBF0F100FB11551D
:102230000AFB05F54FF03C0CB1FBF3F203FB121166
:10224000B5FBF0FEB1FBFCF300FB1E550CFB1311BC
:102250000AFB05F50091B5FBF0F57349CDE901E501
:102260002046FFF749FFA3E7BBF1000F1DD06F4BDE
:102270006F4953F826202046FFF73EFF0546B8F188
:10228000000F05D0654942462046FFF735FF05445B
:10229000B9F1000FA9D067494A462046FFF72CFF45
:1022A0000544A2E74FF00009E1E75D46E7E7454650
:1022B0009BE7B9F1010F129B06D1DBB9149B002BF0
:1022C00000F0898000251BE0002BF7D05A4812E06F
:1022D0005A48129B5A4922461BF010F800280CDA83
:1022E0005849474A47484FF428731BF067F84FF4A2
:1022F000287138E751483546EBE7149B002B67D02F
:10230000DFF84481DFF84491149F1599102F20467F
:1023100028BF1027FFF702FF4FF0000B5D4544DC9C
:10232000139B49461A782046FFF7E6FE4FF0010B53
:102330001BF0070F03D141462046FFF7DDFE5F4546
:102340003AD9139B494613F80B202046FFF7D4FED9
:102350000BF1010BBBF1100FEAD13D49DFF8F4B0EE
:1023600020464FF0000AFFF7C7FE5246139B9A5CC7
:10237000A2F120015F2928BF2E2259462046FFF7EF
:10238000BBFE0AF1010ABAF1100F1AD01AF0070FBA
:1023900003D141462046FFF7AFFE57455246E5D8E8
:1023A00041462046FFF7A8FEEBE741462046FFF7EF
:1023B000A3FE0BF1010BB1E727492046FFF79CFE76
:1023C000C6E7139B3B441393149BDB1B14939BD1D5
:1023D000002E7FF412AF6268A1682068D2E9002362
:1023E0001BF011F9636800221A6007B0BDE8F08F96
:1023F000094A08492046FFF77FFE02E7FF4C02002A
:10240000D04C02001C4502000A4D02000E4D020095
:10241000FC3E02006F440200CB4C0200334D020030
:10242000DC230020D8230020174D0200103F0200BB
:10243000374D02003D4D02003FD6010023D601007A
:10244000AD330000424D0200534D02004B4D0200DF
:10245000554D0200574D0200514D0200074A002120
:102460000123904206D8064A01B901231360054BA7
:102470001860704740085B000121F2E740420F00FE
:10248000D8230020DC230020F8B5074F0D46044672
:102490004618B44201D12846F8BD14F8011BBB68A8
:1024A00001485B689847F4E7D436020010B54368EA
:1024B0001C68094820F087FC48B908490848094ABF
:1024C00099231AF07BFF074899211AF06EFF2368C1
:1024D0005B685C6010BD00BFD4360200B44D0200E2
:1024E0001C450200764D0200014B0360002070473E
:1024F000583F020070B5064686B00D46002938D018
:102500008B6805934B6804930B6803930024244B5A
:1025100024490293012223462046CDE900441BF0C2
:10252000FFF86B6905932B690493EB6803931E4BCB
:102530001C490094CDE901430122234620461BF0AB
:10254000EFF8EB690393194B16490094CDE9014369
:102550000122234620461BF0E3F8AB690393144B9A
:1025600010490094CDE901430122234620461BF087
:10257000D7F8012E0DD1EFF30583103B03930D4BDC
:1025800002930023CDE900330649324618461BF07A
:10259000C7F82946304606B0BDE8704015F0B6BB16
:1025A000E84D0200783E0200174E0200464E02003F
:1025B000554E0200834E020030BFFFF7FDBF00BF43
:1025C0002DE9F0410B4EDFF8308006EB0807CC1BFD
:1025D000054632460949204620F0B9FEA019424678
:1025E0000021083C20F0DBFEC5F8B84007F10800E8
:1025F000BDE8F0810000000008000000E43E020099
:10260000054BDA699B689A421FBF044A536843F03E
:1026100080535360704700BFF820002000ED00E0B9
:10262000F0B585B00024434B0293CDE90044234626
:1026300007460E460122404920461BF08CF83F4BCE
:102640009B6ADB0465D53E4B3B490094CDE90143D1
:102650002046234601221BF07EF81720374B9B6A49
:102660001D050AD5374B029300231846CDE90033E8
:10267000314901221BF06FF81820304DAB6A9C05E0
:102680001FD50024304B0293012223462046CDE97A
:10269000004429491BF05FF8AB6BAA6A10040FD500
:1026A00003932A4B24490094CDE901430122234698
:1026B00020461BF050F81FB1AB6A23F40043AB6215
:1026C00019201E4B9B6A59050AD5214B0293002302
:1026D0001846CDE90033184901221BF03CF81A20B6
:1026E000164A936A13F4807315D01A4B0293002391
:1026F0001846CDE90033104901221BF02CF81B20AD
:102700000E4A936A43F47F4393620023337005B00B
:10271000F0BD1620A2E7926A9204F1D50E4A06494E
:102720000093CDE90132184601221BF014F81C2059
:10273000E6E700BF964E0200783E020000ED00E0A2
:10274000AC4E0200BD4E0200D04E0200E94E020027
:10275000FE4E0200194F0200314F02001FB5002447
:10276000374B029301222346CDE9004435492046E8
:102770001AF0F1FF344B9B6A9A015ED5334B314915
:102780000094CDE901432046234601221AF0E3FFDD
:102790001E202D4B9B6ADB010AD52D4B0293002393
:1027A0001846CDE90033274901221AF0D4FF1F2033
:1027B000254B9B6A1C030AD5264B0293002318461F
:1027C000CDE900331F4901221AF0C5FF21201E4B1D
:1027D0009B6A59030AD5204B029300231846CDE982
:1027E0000033184901221AF0B6FF2220164B9B6ACB
:1027F0009A030AD5194B029300231846CDE90033FA
:10280000104901221AF0A7FF23200F4B9B6ADB031C
:102810000AD5134B029300231846CDE9003309492A
:1028200001221AF098FF2420074A936A6FEA0343B3
:102830006FEA1343936204B010BD1D20A9E700BFE7
:10284000604F0200783E020000ED00E0784F020089
:102850008B4F0200A54F0200C34F0200E84F020059
:10286000025002002DE9F04385B00024564B02933C
:10287000CDE9004423468046894620465349164602
:1028800001221AF068FF524B9B6AD80640D5514B83
:102890000094CDE90143204623464C4901221AF019
:1028A0005AFF11244A4B9B6A19070AD54A4B0293D7
:1028B0000023CDE900334549012218461AF04BFFA9
:1028C0001224434DAB6A9A0724D50024434B02934C
:1028D000CDE9004423463D49012220461AF03BFF42
:1028E0006F6BAB6A1B0659D53D4B38490397CDE951
:1028F000014300942346012220461AF02CFFB9F12F
:10290000000F03D0AB6A23F08003AB62132403E013
:102910001024C7E76FF015072D4B9B6AD8070AD51F
:10292000304B02930023CDE9003328490122184699
:102930001AF011FF1424264B9B6A99060AD52A4BDC
:1029400002930023CDE900332049012218461AF0F2
:1029500002FF15241E4DAB6ADA0602D4AB6A9B0750
:102960000AD56B68180507D54146384600F0ACFA21
:10297000B8B180F309880224154B9A6A920642BFC7
:102980005A6A22F400525A629A6A42F0FF029A622C
:1029900020460023337005B0BDE8F0836FF01507C3
:1029A000B4E7AB6AD906E7D51049114A11484FF48C
:1029B00092731AF003FD10481AF000FD0C484FF412
:1029C00092711AF0F2FC00BF2D500200783E020016
:1029D00000ED00E043500200BD4E020076500200C0
:1029E0008E500200A4500200314F0200F550020048
:1029F000C35002001C4502003F5102002DE9F04186
:102A0000894B0446586890B0C0F30806002383F34E
:102A10001188BFF36F8F02F07F45B5F17F4F0CD166
:102A200002F00C05082D17D1804A81490093CDE9A9
:102A30000132184601221AF08EFE7E497E4A7F48F6
:102A400040F211431AF0BAFC7D481AF0B7FC40F28C
:102A5000114179481AF0A9FC120746BF0C461D46E1
:102A60000125002CE9D04FF00008F31E8DF81F80DF
:102A7000092B00F2BF80DFE803F005B3B796BDBDB8
:102A8000BDBDBDBB6F4B6A49674FCDF80080CDE936
:102A900001830023012218461AF05DFE8DF81F8085
:102AA000FE6A16F0020605D0674BCDF80080CDE92E
:102AB000018306E0FB6A002B0BDA644B0096CDE93C
:102AC000016300235A49012218461AF044FE0022ED
:102AD00030E0FB6A5B0076D55D4B55490096CDE949
:102AE00001630122334630461AF035FE7B69A26944
:102AF00043F480737B61BFF34F8FBFF36F8F7B69AC
:102B000032F8022C23F480737B61BFF34F8FBFF345
:102B10006F8F4DF602739A422CD1236803934D4B6D
:102B200043490096CDE901630122334630461AF04D
:102B300012FE22689DF81F30CBB908AE04F12007C1
:102B400020686168334603C30834BC421E46F7D18F
:102B50000F9B002D62D0C3F3080121B96FEA532304
:102B60006FEA43230F9308A91046FFF7C3FC10B088
:102B7000BDE8F081BB6ADBB23BB10DF11F02012160
:102B80002046FFF76FFE0246D4E7BB6A13F47F4F7F
:102B900005D00DF11F010120FFF742FDF3E7BB6AED
:102BA000B3F5803F02D3FFF7D9FDECE72A49224A6B
:102BB000224840F2EA231AF001FC28481AF0FEFBF2
:102BC00040F2EA2145E724491B4A1C4840F2ED2324
:102BD0001AF0F4FB22481AF0F1FB40F2ED2138E73D
:102BE0000DF11F020021CBE70DF11F010020D3E7FB
:102BF0001C4B5AE71C4A1D4B0D4910F4F87F18BFB7
:102C00001346103ECDE90336194B02930023CDE95C
:102C10000033012218461AF09EFD58E723F4FF7393
:102C200023F001039EE700BF00ED00E09051020099
:102C3000783E0200BB510200C35002001C45020056
:102C4000CE5102000C5202002352020044520200F4
:102C500052520200715202005F5702008D52020070
:102C6000B1520200E15202007751020062510200AB
:102C700005530200044B5A6942F010025A615A6926
:102C800022F008025A61704700ED00E0EFF308807F
:102C9000EFF3098101B57246FFF7B0FE01BD00BF39
:102CA000104880F3088800200F490870FEF71EFFC7
:102CB000202080F311880D484FF0AA014FF40462E0
:102CC00020F0BBF809484FF40461401880F30988EC
:102CD000EFF314800221084380F31488BFF36F8F51
:102CE00000F0BAF88074002070330020C05A002031
:102CF000084B9B6883420BD1EFF3058343B1064B2E
:102D00005A6842F080525A605A6A22F400425A626B
:102D100018F0F2B9F820002000ED00E001B520F035
:102D200099F9BDE8014018498A684FF04000104405
:102D3000EFF3098C80E8F01F202080F31288BFF3A6
:102D40006F8F124F4FF00066CA698A603E60D2F8FA
:102D5000B8000F4C2060D2F8BC000023C2F8BC3091
:102D600080F3118804B5104600F01AF9BDE804405C
:102D700002F1400090E8F01F8CF3098801B517F0CC
:102D8000DFFABDE801407047F820002004ED00E0C4
:102D90000C2400201EF0040F0CBFEFF30880EFF3AB
:102DA0000980816911F8021C0229FFD001B5724621
:102DB0001AF0C6FC01BD00BF00B2002807DB044AC0
:102DC0004109012300F01F00834042F82130704781
:102DD00000E100E038B54B1C072B04460D460FD927
:102DE000114A124912486B231AF0E8FA1148294691
:102DF000072322461AF0E2FA0B486B211AF0D5FAA3
:102E000000B20028ACBF00F160400B4A4FEA431308
:102E1000B8BF00F00F00DBB2AABF00F56140135449
:102E200080F8003338BD00BF185302004F53020032
:102E30001C4502006A53020014ED00E0044B054AF1
:102E400023F07F039360BFF34F8FBFF36F8F704703
:102E50000000000000ED00E008B5FFF7EFFF0B4AAF
:102E6000D2F8883023F47003C2F88830EFF314836B
:102E700023F0040383F31488BFF36F8F15F060F819
:102E800018F0B8FC00F062F815F0ACF800ED00E0C6
:102E900042F8203C009B42F81C3C0A49019B42F846
:102EA000183C029B42F8143C21F001014FF0807362
:102EB00042F8043C42F8081C0023203A0266C0F89D
:102EC000BC3070470D1500000A4A0346906878B17F
:102ED00013F1160FD0F8A80005D0A0F140029A42D5
:102EE00005D8834203D2814228BF002070470020CA
:102EF000704700BFF820002008B50F4B98600F4BBB
:102F000004461546D0F8B8201A600E4617F018FA95
:102F1000204600F045F82C4686F309880020044B33
:102F200098472046002100220023024C2047000041
:102F30007FD701000D150000F82000200C24002090
:102F4000014B10221A61704700ED00E00448002395
:102F50002021C2180133892B82F80013F9D1704760
:102F600000E100E008B5EFF30583064A103B02EBF1
:102F7000C30152F8330049688847BDE80840FFF7AD
:102F80003FBB00BF74370200024B034A03480121D4
:102F900000F098B80000042000000020583F020014
:102FA000D0F8A820054B403A1A60054A4021C3E9F1
:102FB00001121846012100F0ABB800BF1024002018
:102FC00000000B151FB5144AD2F89030C3F3072345
:102FD000013B98420FD9114B029300230390CDE996
:102FE000003318460E4901221AF0EDFB6FF0150070
:102FF00005B05DF804FBC2F898000B6823F01F03CE
:10300000034343F01003C2F89C308B6843F0010384
:10301000C2F8A030ECE700BF00ED00E0AE530200C4
:10302000A03D0200F0B50E4689B01F4604460025BB
:10303000B54212DA606838B3BFB1431E18420FD0F0
:10304000134B02930023CDE900331249039501226B
:1030500018461AF0B8FB6FF01502104609B0F0BD23
:103060001F28EDD921680B42EAD1236805931AF095
:103070009AFBA36805A90343D0B20793FFF7A2FF09
:1030800010F1160FE7D0421C01350C34D0E700BF19
:10309000D4530200A03D0200044B0522C3F8942043
:1030A000BFF34F8FBFF36F8F704700BF00ED00E09D
:1030B000BFF35F8F024B0022C3F89420704700BF1C
:1030C00000ED00E038B50D4D01232A780C46FFF7DE
:1030D000A9FF287016300FD1094A0A490A484FF44F
:1030E000BB731AF06BF9094821461AF067F90448D6
:1030F0004FF4BB711AF059F938BD00BF7C32002083
:10310000F75302005F5702001C45020026540200DC
:1031100010B5144A002312780C46FFF783FF10F114
:10312000160F08D0104A0021D2F89030C3F30723BD
:10313000984210DB10BD0D4A0D490E4840F2951320
:103140001AF03CF90C4821461AF038F9074840F2C9
:1031500095111AF02AF9C2F89800C2F8A0100130AF
:10316000E2E700BF7C32002000ED00E0F7530200F0
:103170005F5702001C450200525402002DE9F04F37
:103180007B4C7C49D4F890300D68C3F307239D42F3
:1031900085B013D9784A7949794840F2AD131AF0CD
:1031A0000DF9D4F8902077482946C2F307221AF087
:1031B00005F940F2AD1170481AF0F7F8FFF778FF03
:1031C00049680022954201F10C012DD16E4C6F4FE0
:1031D00025706846FFF788F9DFF8B481DFF8B4910D
:1031E00006460025AE4232D1237861490020D1F84D
:1031F0009020C2F307229342C0F2AF80FFF74CFF4A
:10320000D1F89030C3F30723082B00F0AC8062495B
:10321000594A5B4840F21F231AF0D0F85F481AF071
:10322000CDF840F21F21C6E7C4F8982051F80C3CB5
:1032300023F01F03134343F01003C4F89C3051F8EC
:10324000043C43F00103C4F8A0300132BAE7009A0D
:1032500002EB05132901D3F80CA00AEA0700B0F528
:10326000000F60D00AD8B0F5001F38D0B0F5800F3D
:103270004ED0B0F5801F12D00135B3E7B0F1807F9A
:103280005CD0B0F1007FF7D19868D3F804A0525811
:103290001AF089FACDE901A240F480200BE0986889
:1032A000D3F804A052581AF07EFACDE901A240F0FA
:1032B000885040F430200390207801A9FFF782FE67
:1032C000002846DA2D492C4A2D4840F2D7131AF02F
:1032D00075F833481AF072F840F2D7116BE7986826
:1032E000D3F804B052581AF05EFA1AF0010F40EA0F
:1032F0000800CDE901B20390DED02A491E4A2048D9
:103300007B231AF05BF828481AF058F87B2152E723
:103310009868D3F804A052581AF045FACDE901A2F2
:1033200040EA0900C7E79868D3F804A052581AF099
:103330003AFACDE901A240F08270BCE79868D3F870
:1033400004A052581AF02FFACDE901A240F088707B
:10335000B1E72378013323708EE7C1F89830C1F8C4
:10336000A000013343E7002005B0BDE8F08F00BFA7
:1033700000ED00E0643F0200F75302005F570200D7
:103380001C4502007F5402007C3200200000F0FF48
:1033900000000811000002063255020082550200AA
:1033A00008550200B3540200D9540200F0B587B0AA
:1033B00007460E4614460021102268461D461FF09F
:1033C000EEFF02238DF802302A46054B0193214679
:1033D0006846CDE9047619F007FC07B0F0BD00BFE0
:1033E000E7D7010008B5024B1B689847002008BDCD
:1033F0001C240020034B044A1860937843F0020316
:10340000937070471C240020BC00002008B50649BA
:10341000064821F00701C1F1005202F58022FDF7B4
:10342000C5FD002008BD00BFB7BE0020202400203D
:1034300070B54169867A0B4D044659B1437ADB0772
:1034400006D4342303FB0653DB6A1B689B6898474A
:10345000002363613420214606FB0050BDE8704024
:103460001FF046BD64080020827A074B342101FB1F
:1034700002331A6B93F824301B33801A23F00303B2
:10348000B0FBF3F0704700BF6408002038B5074B6D
:10349000827A342404FB0233DB6AD3E901240C6012
:1034A0001568FFF7E1FF04FB005038BD64080020F9
:1034B00008B5437A4BB10C490C4A0D485A2319F010
:1034C0007DFF5A21094819F070FF43683BB1094953
:1034D000064A07485B2319F071FF5B21F2E703827C
:1034E0004369C36008BD00BFD7550200B255020052
:1034F0001C450200E85502002DE9FF4705466846D5
:10350000039117461C461FF050FEDDE9008945B9BE
:103510005E495F4A5F48EE2319F050FFEE215C4898
:1035200018E005F11C06EFF3118A202383F31288BB
:10353000BFF36F8F304618F04FF868B9564A5749B5
:103540005448882319F03AFF3146554819F036FFA0
:103550008821514819F029FF304618F061F86B8C2A
:10356000002B5CD02A8C9A4239D9002200232846AD
:1035700015F0A0FC0446002831D0304618F03AF887
:1035800068B9454A4749434840F2311319F016FFDC
:103590003146454819F012FF40F23111D9E78AF35C
:1035A0001188BFF36F8F039D002D5ED042464B46BE
:1035B00068461FF01FFEA27A3C4B342101FB023308
:1035C0002046DB6A1B6803A91E68DDE90023B047BB
:1035D0006061002839D12046FFF72AFF30E06C8C6B
:1035E000631E6B84304618F005F80028C9D08AF3B2
:1035F0001188BFF36F8F95F824302A8C1B33121B70
:103600002C6B23F0030302FB0344284B284AEB1ADC
:103610009B105343A37295F82430E372C3E73046FE
:1036200017F0E8FF0028ACD08AF31188BFF36F8F42
:1036300023463A46284615F03DFC04460028B2D100
:103640000024204604B0BDE8F087039B9D420DD9BD
:1036500018490F4A0F4840F2451319F0AFFE1648BB
:1036600019F0ACFE40F2451159E7656101230021D4
:103670002381039BE27A6160638204F118001FF0EA
:103680008EFE2046FFF714FFDBE700BF0256020064
:10369000B25502001C450200184A0200454A0200C9
:1036A0005A4A02009F4A0200B64A020064080020FB
:1036B000C54EECC4075602001856020070B5044609
:1036C00098B1114D342620466468037A013BDBB281
:1036D00003724BB9C3604360837A06FB03539B6A52
:1036E0007BB19847002CEED170BD08490848094AC3
:1036F00040F2AB1319F062FE064840F2AB1119F02C
:1037000054FEFFF795FEEDE7640800202B560200FB
:103710001C450200B255020008B558B907490848CF
:10372000084A40F2D51319F049FE064840F2D51177
:1037300019F03BFE027A0132027208BD2B560200DC
:103740001C450200B255020008B5034658B90849A5
:103750000848094A4FF4087319F030FE06484FF440
:10376000087119F022FE18465B68002BFBD108BDDA
:103770002B5602001C450200B255020070B50D46E2
:10378000044658B90F49104A104840F22B2319F04B
:1037900015FE40F22B210C4819F007FE49B90C49DF
:1037A000094A0A484FF40B7319F008FE4FF40B71E5
:1037B000F1E746681EB10846FFF7C6FF4660656040
:1037C00070BD00BF1B560200B25502001C4502002E
:1037D0002256020038B505460C4659B90C490D4829
:1037E0000D4A40F2372319F0E9FD0B4840F237212A
:1037F00019F0DBFD20B9BDE838400846FFF78CBF63
:10380000FFF7A2FF2146FFF7B9FF284638BD00BFEA
:10381000225602001C450200B255020008B548B904
:103820000B490C4A0C482B2319F0C8FD2B210948E1
:1038300019F0BBFD83883BB10849064A06482C2392
:1038400019F0BCFD2C21F2E783680B44036008BD2E
:103850002B5602002F5602001C4502005B56020048
:1038600008B582888A4203460BD2094909480A4AA8
:1038700040F2C31319F0A2FD074840F2C31119F03A
:1038800094FD521A828000680844186008BD00BF89
:103890006A5602001C4502002F56020008B5034676
:1038A00000689A888A420BD208490948094A40F2BE
:1038B000CF1319F083FD074840F2CF1119F075FDC1
:1038C000521A01449A80196008BD00BF6A5602006E
:1038D0001C4502002F560200F8B5858803680E4685
:1038E00004465F1919F0BEFFB04209D206490748E5
:1038F000074A3E2319F062FD05483E2119F055FDA7
:103900003544A5803846F8BD7A5602001C450200B1
:103910002F5602002DE9F04104468846174600F173
:103920002005EFF31186202383F31288BFF36F8FF6
:10393000284617F051FE68B9594A5A495A4888230F
:1039400019F03CFD2946594819F038FD88215448A2
:1039500019F02BFD284617F063FE236BDA0740F1C0
:103960009480B8F5817F54D00DD8B8F1030F31D0D1
:10397000B8F1040F44D05F231FF0F2FD4C4A4FF022
:10398000FF34135029E040F203139845F3D1D7E9EF
:1039900000329988C9070AD5D4E90A100143D988A9
:1039A00018BF41F00101D980116814311160998864
:1039B0004F072CD5D4E90A01841C71F1FF31D98855
:1039C00034BF0120002041EA8001D98013681433FC
:1039D00013601CE044F202041C40284617F00AFE63
:1039E000002856D12E4A33492F4840F2311319F09E
:1039F000E5FC2946304819F0E1FC40F23111A6E718
:103A00003A682E490A4242D10B40134323630024F3
:103A1000E3E7D7E900038288B968D70719D51A68A0
:103A2000914201D10C23A7E714611A68577B4FF02C
:103A3000010C6CF3050757731A68977B6FF34517F2
:103A400097731A68D7686FF39437D7601A6814327F
:103A50001A6082885007DAD51A689142E2D0103491
:103A600014611A68517B012060F3050151731A68D3
:103A7000917B6FF3451191731A68D1686FF394319C
:103A8000D1601A6814321A60C1E7092374E716235B
:103A900072E786F31188BFF36F8F2046BDE8F0818F
:103AA000184A0200454A02001C4502005A4A020018
:103AB0000C0000009F4A0200B64A0200FDBFFFFF53
:103AC0002DE9F743072A98464FF00003CDE900336C
:103AD00005460E460BD961B90E231FF041FD924AEF
:103AE00013504FF0FF35284603B0BDE8F08316238E
:103AF000F3E700F12004EFF31187202383F312880A
:103B0000BFF36F8F204617F067FD60B9874A884979
:103B10008848882319F052FC2146874819F04EFC4A
:103B20008821824835E0204617F07AFD2B6B5B0434
:103B300016D531462846C047002880F2F28043421D
:103B40001FF00EFD784A13504FF0FF35204617F056
:103B500051FD00283BD087F31188BFF36F8FC2E778
:103B60001FF05FFA08B10B23EAE7744901AB6A461C
:103B70002846FDF745FD70B97149724A6D484FF40A
:103B8000AF7319F01BFC704819F018FC4FF4AF71BB
:103B90006C4819F00AFC009B4BB96C49694A6548AE
:103BA00040F25F1319F00AFC40F25F11F0E7019B4D
:103BB0004BB96749634A5F484FF4B07319F0FEFB95
:103BC0004FF4B071E4E7204617F014FD68B9574A86
:103BD0006049584840F2311319F0F0FB21465E4825
:103BE00019F0ECFB40F231119BE787F31188BFF32A
:103BF0006F8F00984FF0FF324FF0FF3314F048FE04
:103C0000074620BB4FF02009EFF3118789F3128894
:103C1000BFF36F8F204617F0DFFC00283FF476AF2C
:103C2000204617F0FDFC31462846C04710F10B0F27
:103C300002463DD000285DD017DB4849414A3D4847
:103C40004FF4BB7319F0BAFB4FF4BB71A0E73D4AC8
:103C50004349384840F2651319F0B0FB39464148F2
:103C600019F0ACFB40F2651192E71FF079FC2E4B86
:103C700052421A504FF0FF35204617F0BBFC002887
:103C8000A5D087F31188BFF36F8F019816F0D2F893
:103C9000044688B32B4A324926484FF4C47319F0BE
:103CA0008DFB2146304819F089FB4FF4C4716FE752
:103CB000204617F09FFC002889D087F31188BFF3B6
:103CC0006F8FDDE900104FF0FF324FF0FF3316F039
:103CD000BFF90746002897D01A4A2149154840F2F3
:103CE000811319F06BFB3946204819F067FB40F24D
:103CF00081114DE70825BFE7009814F099FE0446AE
:103D000000283FF4F0AE0F4A15490A484FF4C57336
:103D100019F054FB2146164819F050FB4FF4C571B9
:103D200036E7082512E700BF0C000000184A020021
:103D3000454A02001C4502005A4A0200903F020018
:103D4000DB560200AD560200E65602000C57020098
:103D5000205702009F4A0200B64A0200595702004B
:103D6000345702003D5702007F570200615702009E
:103D70009F570200014BFFF7A3BE00BF9BD8010075
:103D8000014BFFF79DBE00BF09D90100F7B5002325
:103D9000CDE9003305461FF044F948B11FF0E0FBC0
:103DA000604B0B221A504FF0FF34204603B0F0BD99
:103DB0005D4901AB6A462846FDF722FC60B95B49C4
:103DC0005B4A5C48BC2319F0F9FA5B4819F0F6FA33
:103DD000BC21574819F0E9FA009838B95749544AB4
:103DE0005448BD2319F0EAFABD21F2E7019B3BB923
:103DF00053494F4A4F48BE2319F0E0FABE21E8E785
:103E00004FF0FF324FF0FF3314F042FD044658B13B
:103E1000474A4C494748C12319F0D0FA21464A483D
:103E200019F0CCFAC121D4E705F12006EFF3118790
:103E3000202383F31288BFF36F8F304617F0CCFB3B
:103E400060B9424A42493B48882319F0B7FA3146E3
:103E5000404819F0B3FA88213C48BBE7304617F0D8
:103E6000DFFB2B6BDB0718D41FF07AFB2D4B0922ED
:103E70001A504FF0FF34304617F0BCFB50BB334AAA
:103E800035492C4840F2311319F098FA314633483D
:103E900019F094FA40F23111DEE7314B314A3248E1
:103EA000EB1ADB105A430121FDF796FD044658B189
:103EB0001F4A24491F48CC2319F080FA21462B4879
:103EC00019F07CFACC2184E700220023C5E90A23FB
:103ED0002863D0E787F31188BFF36F8F019816F03E
:103EE00021F8054658B1124A16491248D72319F04D
:103EF00065FA29461E4819F061FAD72169E700984A
:103F000014F096FD054600283FF44FAF084A0D49CE
:103F10000848D92319F052FA2946164819F04EFAE2
:103F2000D92156E70C000000903F0200DB5602004A
:103F3000AD5602001C450200E65602000C57020076
:103F400020570200345702003D570200184A020071
:103F5000454A02005A4A02009F4A0200B64A02003D
:103F6000180A0020B76DDBB6CC000020BD57020058
:103F7000DE5702009F5702002DE9F34721F48047E6
:103F800027F002078046894657B11FF0E9FA224B15
:103F900016221A504FF0FF35284602B0BDE8F087D0
:103FA0001E4801AA0121FDF76FFC002804DA1FF06A
:103FB000D7FA194B0C22ECE7019CDFF864A03823F8
:103FC0005C43FDF76FFB051E04EB0A0605DA019A58
:103FD00012480121FDF700FDDCE749F00103103430
:103FE000C6E90A873363544420461FF091F93046EE
:103FF0001FF08EF9B8F1000F03D03946304618F0A3
:104000006BFA0021204618F067FA064A0023314671
:104010002846FDF78DFBBFE70C000000CC00002018
:10402000180A0020903F020010B509220C460F49E3
:10403000FDF7C8FAA0B10E4B08222146FFF740FD5C
:10404000431C0DD008280ED00A490B480B4A4FF4E8
:10405000E67319F0B3F909484FF4E67119F0A5F9C0
:104060004FF0FF3010BD0020FCE700BF903F020082
:1040700009D90100015802001C450200AD5602009A
:104080002DE9F04F9DB00F46069008A814461D4636
:104090001FF08BF8DDE908234FF00009CDE9042378
:1040A000DDF818A0CDF80C900DAB0A93B8464E463B
:1040B000B8F1000F23D1002E70D0B5F1FF3F08BF3B
:1040C000B4F1FF3F4FF0FF300BD0A04278EB050872
:1040D0004FF00A024FF00003204629465BD3FCF75D
:1040E000FFFACDE90070069B03984FF482724946AF
:1040F00019F03AFC064630461DB0BDE8F08FDAF8FC
:104100000000002842DB0CAA0BA9FDF7B1FA834698
:1041100000283BD00C984FF0FF324FF0FF3314F0E3
:10412000B7FB1CAB01930AAB00930B9853464FF4BB
:104130008172594619F018FC10F1780F03461AD114
:104140000023002208A81FF030F8DDE90834CDE98B
:1041500004340024254623460C98079314F068FC89
:10416000079B002B12DA5B421FF0FAF9414A4FF02D
:10417000FF361350BFE710F1120FEDD1039B13B9B7
:104180000B9B0393D94600230126E5E70AF1080AB1
:1041900008F1FF388CE7FCF7F3FAA2E7DDE9042326
:1041A00008A81FF027F8DDE90845DFF8CC90224683
:1041B0002B46B0460A990DAC091B891009FB01F189
:1041C000204618F051F800F10B030B2B04D82B4EAE
:1041D0001E4116F0010601D04342C5E70A94069C31
:1041E0003D46B24685B9BAF1000F84D0002E82D187
:1041F000DDE9042308A81EF0FDFFDDE908452B4694
:1042000025432246D6D176E72068A4F80680002808
:104210002ADB0CAA0BA9FDF72BFA834618B9202339
:10422000E380013620E00C984FF0FF324FF0FF336F
:1042300014F02EFB0AAB009359460B98234640F22C
:10424000031219F091FB83460C9814F0F1FB1BF15B
:104250000B0F0CD0BBF1000F02D0CBF1000383E7B2
:10426000B4F90630002BDCD10834013DBAE74FF039
:10427000010AF9E70C000000CDCCCCCC7EF7FFFFA3
:10428000F7B506460D4614461E4F38461EF09BFDF8
:1042900068B91D4A1D491E48142319F08FF8396862
:1042A0001C4819F08BF81848142119F07EF8AAB2AE
:1042B000BB681B685BB91849184A15485B2319F09D
:1042C0007DF8174819F07AF814485B21EDE731467C
:1042D00038469847002802DB002003B0F0BD002CD0
:1042E000FBD1AC42F8D22F1B042F28BF042713F0B8
:1042F0008BFC3A46019001A930191FF028F83C4484
:10430000EFE700BFB43602002C58020065580200E7
:104310001C45020082580200D4580200A058020036
:10432000F45802002DE9F041214CDFF88880054661
:104330000E461746444530D91F49204A20486D2370
:1043400019F03CF81F4819F039F86D210FE0236887
:10435000AB4200D0FBB9A36863B91B49174A1848A0
:10436000752319F02BF8194819F028F8752113480E
:1043700019F01BF83A4631462846984758B11FF0C5
:10438000EFF8134B0022C2503146E3683A46284604
:10439000BDE8F04118471034CCE7D8D31FF0E0F85F
:1043A0000B4B6A221A504FF0FF30BDE8F08100BF7E
:1043B000203D0200303D0200495A0200FB59020034
:1043C0001C450200314C02002F5A02001856020010
:1043D0000C00000037B50D4601AA6946FDF748F903
:1043E000044660B1009B1B695BB986231FF0B8F8D7
:1043F0000C4A13504FF0FF34204603B030BD092360
:10440000F4E701984FF0FF324FF0FF3319F0C8FA8C
:10441000009B29461B69204698470446019819F0DD
:10442000C1FAE9E70C00000073B50D46164669466F
:1044300001AAFDF71DF90446B0B1009B5B69DBB131
:1044400001984FF0FF324FF0FF3319F0A9FA009BAB
:1044500020465B693246294698470446019819F080
:10446000A1FA204602B070BD09231FF079F8034A73
:104470004FF0FF341350F4E75F23F6E70C00000021
:1044800037B50D4601AA6946FDF7F2F80446A8B112
:10449000009BDB69D3B101984FF0FF324FF0FF333F
:1044A00019F07EFA009B2046DB69294698470446AE
:1044B000019819F077FA204603B030BD09231FF0A8
:1044C0004FF8034A4FF0FF341350F4E75F23F6E749
:1044D0000C00000073B50D461646694601AAFDF7AB
:1044E000C7F80446B0B1009B1B6ADBB101984FF0DE
:1044F000FF324FF0FF3319F053FA009B20461B6A3E
:104500003246294698470446019819F04BFA20464E
:1045100002B070BD09231FF023F8034A4FF0FF34A7
:104520001350F4E75F23F6E70C0000002DE9FF418C
:104530000D46164602A903AA1F46FDF799F8044640
:10454000E8B1029B5B6A13B303984FF0FF324FF060
:10455000FF3319F025FA0B9B01930A9B0093029BF2
:104560002046D3F8248032463B462946C0470446BD
:10457000039819F017FA204604B0BDE8F08109232A
:104580001EF0EEFF034A4FF0FF341350F3E75F23B2
:10459000F6E700BF0C0000002DE9FF410D4616466E
:1045A00002A903AA1F46FDF763F80446E8B1029B7F
:1045B0009B6A13B303984FF0FF324FF0FF3319F0AB
:1045C000EFF90B9B01930A9B0093029B2046D3F8C3
:1045D000288032463B462946C0470446039819F0D6
:1045E000E1F9204604B0BDE8F08109231EF0B8FFD0
:1045F000034A4FF0FF341350F3E75F23F6E700BFA1
:104600000C0000002DE9FF410D46164602A903AA41
:104610001F46FDF72DF80446D8B1029BDB6A03B3B1
:1046200003984FF0FF324FF0FF3319F0B9F90A9BAE
:104630000093029B2046D3F82C8032463B46294605
:10464000C0470446039819F0ADF9204604B0BDE810
:10465000F08109231EF084FF034A4FF0FF3413500A
:10466000F3E75F23F6E700BF0C0000002DE9FF41F0
:104670000D46164602A903AA1F46FCF7F9FF044699
:10468000D8B1029B1B6B03B303984FF0FF324FF07E
:10469000FF3319F085F90A9B0093029B2046D3F85B
:1046A000308032463B462946C0470446039819F0FD
:1046B00079F9204604B0BDE8F08109231EF050FFCF
:1046C000034A4FF0FF341350F3E75F23F6E700BFD0
:1046D0000C00000073B50D461646694601AAFCF7AA
:1046E000C7FF0446B0B1009B1B6CDBB101984FF0D3
:1046F000FF324FF0FF3319F053F9009B20461B6C3B
:104700003246294698470446019819F04BF920464D
:1047100002B070BD09231EF023FF034A4FF0FF349F
:104720001350F4E75F23F6E70C00000070B506466F
:104730001D460C4609B1142A07D016231EF010FF9F
:10474000154A13504FF0FF3070BD05F0A3FB102247
:10475000014620461EF02BFE0028EED0206919F0FD
:1047600032F958B996F9B000002804DC03F004F8D7
:1047700020B90223E2E719F026F9F9E721462DB125
:104780000AF066F9002804DA4342D7E70AF0B4F9E0
:10479000F8E70020D8E700BF0C00000008B570B9AA
:1047A00009490A4A0A4840F2722318F007FE0948EC
:1047B00018F004FE054840F2722118F0F6FDB0F83A
:1047C000AE00C0F3811008BDB35A02007F5A020048
:1047D0001C4502001856020008B570B909490A4A7A
:1047E0000A4840F2222318F0E9FD094818F0E6FDD6
:1047F000054840F2222118F0D8FDB0F8AE00C0F311
:10480000410008BDB35A02007F5A02001C45020055
:104810001856020008B570B909490A4A0A4840F218
:10482000472318F0CBFD094818F0C8FD054840F2B1
:10483000472118F0BAFDB0F8AE00C0F3C20008BDC1
:10484000B35A02007F5A02001C45020018560200AB
:1048500010B5044609B10C2A07D016231EF080FEBD
:104860000E4A13504FF0FF3010BD0B68002BF4D0F0
:10487000886860B119F0A7F838B994F9B000002839
:1048800009DC02F079FF0028E7D05823E6E7081D8D
:104890001AF003FBEEE719F096F8F4E70C000000BD
:1048A0007FB50BAB05930393054B02930023CDE932
:1048B000003302221846FDF79DFB07B05DF804FBAC
:1048C000BB5A020008B570B90A490B4A0B4840F2BE
:1048D000ED2318F073FD0A4818F070FD064840F209
:1048E000ED2118F062FDBDE8084090F9B00019F024
:1048F0006AB800BFB35A02007F5A02001C4502008A
:1049000018560200F7B507460E461446FCF7CAFED5
:10491000051E18DB3CB97B1E012B04D8022E17D0D4
:10492000012E08BF0624F1B201ABA2B2B8B205F065
:10493000C3FE061E0EDA284618F035FD1EF010FEE6
:10494000104B76421E504FF0FF35284603B0F0BDA5
:104950001124E8E701980023436083677C301EF050
:10496000AFFA019898301EF058FB062C02D101983E
:104970001AF00CFD044A01994FF440432846FCF715
:10498000D7FEE2E70C000000A03F020037B5069D0D
:104990000446E3B900930F490022002306F070FD9E
:1049A00004F17C001EF08CFA04F198001EF035FB37
:1049B000214605F17C001EF090FA20461AF0E6FC34
:1049C00005F1980003B0BDE8304015F033BA03B0EC
:1049D00030BD00BFDDD901002DE9F04188B0DDE92F
:1049E0000E870C4657EA0801109E054613D014F1B5
:1049F000690F02D014F10B0F0DD168461EF0FAFBBF
:104A0000DDE9002313430ED114F1690F0CBF6FF0E1
:104A10000B046FF068041EF0A3FD2D4B64421C5084
:104A20004FF0FF3049E0B7F1FF3F08BFB8F1FF3F5B
:104A30000BD00A22002340463946AFB9FBF750FE9F
:104A40003368834294BF33603060D5F8A00008B16A
:104A500013F0EEFF14F1690F09D130680A21A0FBB1
:104A6000010116F0A9FA1EE0FBF78AFEE8E70B3415
:104A700019D12846FFF792FE01280446EDD12846B9
:104A8000FFF720FF28461DF0DEF800220346022132
:104A900003A817F0A7FB32680A23A2FB03232146D1
:104AA00003A817F0E1FB33685B00642B28BF642385
:104AB0003360D5F8A00018B9002008B0BDE8F08137
:104AC0004FF0FF324FF0FF3313F0E2FEF4E700BF88
:104AD0000C000000F8B540F203139942044600F0C0
:104AE0008B80B1F5827F0ED2042923D0B1F5817F6E
:104AF0002BD0032919D01EF033FD6B4B5F221A50C7
:104B00004FF0FF3015E045F21B43994200F0BE80A4
:104B100045F22143994200F0B78040F205139942D3
:104B2000E9D11368C0F8A0300DE0806FC0F34000F9
:104B30008003F8BD1268836F550423F0020301D58A
:104B400043F00203A3670020F3E7D2E900158B8846
:104B50009768D8071BD52B689F4202D16FF00B00D6
:104B6000E7E704F17C021A612B685A7B042060F3AA
:104B700005025A732B689A7B6FF345129A732B6860
:104B8000DA686FF39432DA602B6814332B608B8809
:104B90005A0729D52046FFF701FE012802D06FF001
:104BA0007700C6E72046FFF78DFE2E68B742D5D0C6
:104BB0002046FFF711FE012820461AD11DF046F8C5
:104BC00030612B685A7B022161F305025A732B680E
:104BD0009A7B6FF345129A732B68DA686FF39432FD
:104BE000DA602B6814332B60A36F13F0050FAAD083
:104BF000D5E71DF028F8E3E7D2E90056AB88DB07DC
:104C00000ED53368DB6813F4EE1F02D1836FDF0724
:104C100003D5EB8843F00103EB8033681433336032
:104C2000AB8858071BD52046FFF7B8FD012826D1D1
:104C30002046FFF747FE3368DB6813F4FE1F0BD0F6
:104C4000A36FD90708D42046FFF7C6FD022802BF8C
:104C5000EB8843F00403EB80336814333360A36FB5
:104C60005A0742BFEB8843F00803EB80A36FDB07D2
:104C70007FF569AFEB8843F01003EB8063E7EB88C7
:104C800043F00403EB80EAE7836F59E700231468DD
:104C900019461A4618F005FF6FF00043984294BF7A
:104CA000206023604FE700BF0C00000013B50446EE
:104CB000FFF792FD0021032800914FF000024FF012
:104CC0000003204619D106F089FB04236360A36F1B
:104CD00043F00403A367204618F0C1FE204605F008
:104CE000CBFD031E06DA1EF03BFC054A5B42135067
:104CF0004FF0FF33184602B010BD06F0C1FBE4E7E9
:104D00000C00000037B505460C4619BBFFF764FDE3
:104D1000032800944FF000024FF00003214628467C
:104D20000DD106F05BFB031E0CDA1EF019FC0E4AD7
:104D30005B4213504FF0FF34204603B030BD06F005
:104D40009FFBF0E7AB6F43F00103AB67284618F019
:104D500086FEF1E71EF004FC4C1E012C024B94BFB2
:104D6000862216221A50E5E70C00000013B504460F
:104D700005F0C0FD031E07DA1EF0F2FB0D4A5B4290
:104D800013504FF0FF3007E02046FFF707FD0238D1
:104D9000C0B2012802D9002002B010BD63680093A0
:104DA000054900230022204606F06AFB031EF2DAC2
:104DB000E2E700BF0C000000DDD901002DE9FF474C
:104DC000044688469146FFF7E9FC0328824609D14C
:104DD0001EF0C6FB2D4B5F221A504FF0FF3004B07F
:104DE000BDE8F0872046FFF7F7FC022831D0012804
:104DF000A56F09D11EF0B4FB15F0040F234B01D0B1
:104E00006268E9E77822E7E715F0020518BF204D50
:104E1000636819BF0026002747F230560027BAF111
:104E2000010F18D100931B4900220023204606F0F1
:104E300027FB002801DA434219E063680293CDE9B9
:104E400000672B464A464146204606F077F900287F
:104E5000F1DB0020C3E70293CDE900672B464A4609
:104E60004146204606F06AF9031E05DA5B421EF051
:104E700077FB064A1350B0E76368009305490022A8
:104E80000023204606F0FCFAE1E700BF0C0000001A
:104E9000CBD90100DDD9010037B504460D46FFF737
:104EA0007DFC03280ED02946204605F033FE031E64
:104EB0000ADA5B421EF054FB0A4A13504FF0FF30EF
:104EC00003B030BD5F23F5E70749009400220023BB
:104ED000204606F083FA002801DA4342EAE7002080
:104EE000EEE700BF0C0000008D4900002DE9F04FF7
:104EF0008FB016464FF0FF384FF0FF390A225B069D
:104F0000CDE90C89189F0B9204460D4603D4836F9C
:104F100013F002034BD000220023CDE90C2308A894
:104F20001EF043F9DDE90C2308A8DDE908891EF02D
:104F30003CF9DDE90823CDE906236368009329499C
:104F400000230022204606F09BFA031E36DB4FF0BA
:104F5000000A0DF12C0BDDE90C236168002F37D01E
:104F6000CDE90223199B04910093CDF804A03B46A0
:104F70003246294620461AF0EDFA002825DADDE906
:104F80000C230146CDE90023CDF808B042464B463C
:104F90002046FFF721FD002817DBDDE9062308A8DE
:104FA0001EF028F9DDE90823CDE90C23D3E70CAA8C
:104FB000052106F047FC0C4A0023B0E71EF0D0FAAA
:104FC0000A4A5B4213504FF0FF300FB0BDE8F08F3C
:104FD000CDE9002302913B463246294620461AF08D
:104FE00057FACAE7DDD90100A08601000C000000D5
:104FF0002DE9F0474FF0FF338CB015464FF0FF32EC
:10500000CDE90A230A2309936B0604460E4603D40E
:10501000836F13F0020339D000220023CDE90A2365
:1050200006A81EF0C2F8DDE90A2306A8DDE9068914
:105030001EF0BBF8DDE90623CDE9042300270DF1BE
:10504000240ADDE90A230297CDE900233146002333
:105050002A4620461AF059FA00281EDADDE90A230A
:105060000146CDE90023CDF808A042464B46204634
:10507000FFF7B2FC002810DBDDE9042306A81EF0D0
:10508000B9F8DDE90623CDE90A23DAE70AAA052102
:1050900006F0D8FB024A0023C2E70CB0BDE8F08757
:1050A000A08601001FB5D0F8A03004460A466BB9AF
:1050B000104A0390CDE9013218460F4900930222AD
:1050C000FFF7EEFB6FF0150004B010BDC36F0BB11E
:1050D0000020F9E7D2E90023D0F8A010983014F0AE
:1050E000B7FF0028F0DBA36F5B07F1D56068404293
:1050F000EAE700BFBB5A0200483E0200F7B504468B
:105100000F461646FFF74AFB032805D11EF028FA82
:10511000424B5F221A5013E0A36F980715D44FF04B
:10512000FF334FF0FF3269462046CDE90023FFF7F9
:10513000B9FF031E09DA1EF013FA384A5B42135016
:105140004FF0FF35284603B0F0BD002204F17C008B
:10515000002313F0AFFE044620B91EF001FA2F4BD6
:105160000B22D7E7FCF79EFA051E06DA204618F058
:1051700076FC204605F080FBE2E704F17C001DF0A0
:10518000D4FEA8B190F83730990711D5A36F43F03A
:105190000103A367284618F006F9204618F05FFCC3
:1051A000204605F069FB1EF0DBF91C4B7122B1E7CC
:1051B000B4F8AE305A0508D51EF0D2F9174B71225B
:1051C0001A50284618F0EFF8D0E723F40073A4F83B
:1051D000AE3077B16EB13268182A28BF182204F1B8
:1051E0002C0138461EF0B3F8A38D012B09D10823FA
:1051F00033600B4A4FF4404321462846FCF798FAA7
:10520000A0E7022B01D11823F2E7284618F0CBF8CB
:105210001EF0A6F9014B86221A50A7E70C000000E9
:10522000A03F02002DE9F04F8FB09A4602924FF056
:10523000FF334FF0FF32CDE90423189B0D4659068A
:10524000DDE9196B074603D4836F13F002032FD0F7
:1052500000220023CDE90423189B13F00203DDE9AB
:10526000048907F17C04009336D01022002109A89C
:105270001EF095F804238DF831300D9401214B4632
:10528000424609A816F0F0FF00F10B010B29034676
:1052900018D89F4A0A41D20714D420461DF041FE77
:1052A0000446F8B91EF05CF99A4B0B221A500EE036
:1052B00004AA042106F0C6FA04A93846FFF7F2FE54
:1052C000031EC9DA1EF04CF9924A5B4213504FF0AC
:1052D000FF300FB0BDE8F08F42464B46204613F03A
:1052E000E9FDDDE7D0E90398002E52D0BBF1000FB5
:1052F0004FD0DBF80020B7F8AC300392384601936A
:10530000FFF74CFA20461AF066FC94F83730039AFF
:10531000C3F30213338094F83730C3F30213012B25
:1053200044D100201423072ACDE9090364D909A92F
:10533000204606F039FD074610B96FF068035DE0BE
:105340000A9920461AF09AFC0028F6D194F83A10EF
:1053500020461AF093FC0028EFD1FB6873609DF89B
:105360000430112B06F1020757D107AB099308232C
:105370000A9309A9204606F017FD0028DDD003880E
:105380003B80C4E903983388012B51D10823CBF823
:105390000030002D00F08880EB6813B1AB68002B63
:1053A0004AD11EF0DDF85B4B0C227FE7022B3CD18B
:1053B00000212823172ACDE909131DD909A9204660
:1053C00006F0F2FC07460028B7D00A9920461AF0EA
:1053D00055FC0028B1D1618F20461AF04FFC0028FF
:1053E000ABD107F10803321D183753F8041B42F8FC
:1053F000041BBB42F9D1B2E76FF01503C4E903986F
:105400005B421EF0ADF8434A1350009B002B7FF423
:105410005EAF20461AF048FB59E7062B05D109ABD1
:1054200007931423089307A9A4E76FF08503E5E722
:10543000022B6AD11823AAE720461AF09BFC82456A
:10544000574628BF07460646BB460023BBF1000F60
:105450000FD1B24503D2AB6943F02003AB612B6996
:10546000002B4DD0696971B30F2947D8C5F814B026
:1054700029E0AA68D158D01821B91EF071F8254B3F
:10548000162213E7426802935A4528BF5A4620461F
:1054900001921AF009FC029B019A083308B16923B2
:1054A000AFE7ABEB020BD1E720461AF063FC824575
:1054B000574628BF0746064602993A4620461AF044
:1054C000F3FB0028EBD1009BE3B920461AF0ECFA7D
:1054D000189B13F0200F0CBF38463046F9E6934472
:1054E000073222F00700103018448842BED822F05C
:1054F000070213441A68002AF1D1B7E71944F9E703
:105500006B61E0E7C4E90398E2E7862379E700BF2F
:105510007EF7FFFF0C0000002DE9F04F8DB017461D
:105520001E464FF0FF324FF0FF33CDE90823DDF880
:1055300058800D46044670B95F49604A60484FF490
:10554000DE7317F03BFF5F4817F038FF5B484FF4FE
:10555000DE7117F02AFFB0F8AE30D9070ED5FFF78D
:105560003BF902280CD080231DF0FAFF564A135055
:105570004FF0FF3630460DB0BDE8F08F0923F3E75A
:1055800018F0400F02D1A36F9A0715D5002200230F
:10559000CDE90823002EEDD0DDE90823CDE905761D
:1055A000CDE90A2308F4807BA5B19FB9EB6863B904
:1055B0006FF015004342D7E713F00503EAD108AABC
:1055C0000421204606F03EF9E4E7AB681A685B6800
:1055D00005920793DDE90A2302A81DF0E6FDDDE947
:1055E0000223CDE9002300273E46069B4BB3A36F61
:1055F00013F004000DD060684042002820EAE076F5
:10560000D8DB18F0020FB5D13146204619F0CCFF97
:10561000B0E7DB07F1D4DDE90AA95AEA090312D1A0
:10562000C5B9434606AA05A9204618F03AFA8319D7
:1056300050EA03063DD15AEA090918D0BBF1000F20
:1056400031D13046D9E70AA92046FFF72BFD0028C3
:10565000E6DAD2E7434607AA05A9204618F021FA60
:10566000064450EA060305D15AEA090302D16FF055
:105670000A009FE7AA6852F837100144059106997D
:10568000091A06910799FB000029D7D1E96801376B
:105690008F42D6D00833D118D2584B680592079361
:1056A0000AB1002BD6D1DDE900230AA81DF0A2FD26
:1056B0009BE71E46C2E700BFB35A02007F5A0200B2
:1056C0001C450200185602000C0000002DE9F043B2
:1056D000144685B0DDE90C8905460E461F46FFF7E6
:1056E0005DF854B3831EDBB2012B0BD8CDE90189E1
:1056F00000972346324600212846FFF793FD05B068
:10570000BDE8F083012809D123463246002128460E
:105710000C9705B0BDE8F043FFF7FEBE0849094A03
:10572000094840F2D45317F049FE084817F046FEE6
:10573000044840F2D45117F038FE2046DFE700BF9E
:105740005F570200DE5A02001C450200175B020090
:10575000F0B50C4685B005461646FFF71FF8002C3D
:1057600035D0A16800293AD00023E7681A460431F1
:1057700097420FD1821ED2B2012A10D8221D029266
:1057800022682146CDE9006228460022FFF74AFD43
:1057900005B0F0BD51F832C001326344E8E701289A
:1057A00006D10096002221462846FFF7B5FEEFE716
:1057B0000C490D4A0D4840F2F65317F0FFFD0C4816
:1057C00017F0FCFD084840F2F65117F0EEFD1623E5
:1057D0001DF0C6FE074A13504FF0FF30D8E70C23E8
:1057E000F6E700BF5F570200DE5A02001C450200C8
:1057F000175B02000C0000007FB50D46062D1C460D
:105800000646089B114661D005DC002D66D0012DAF
:1058100026D06D23A8E0292DFBD11A2A00F3B080F1
:105820000F2AF6DDA2F110010A29F2D801A252F8DE
:1058300021F000BF9F590000A5590000B759000092
:10584000BD59000013580000135800001358000001
:105850001358000091590000135800009959000096
:105860000F2A30D00DDC032A1DD0042A13D0022ABF
:10587000CFD12246092105F0E5FF002810DA434286
:1058800072E0262A18D0272AC3D11B68042B6AD1BC
:10589000FEF7C0FF0EE01B68042B64D14368236051
:1058A000002004B070BD0193FEF778FF019B1B68D8
:1058B000042B58D12060F3E71B68B0F8AC20042B10
:1058C00051D12260ECE722460A21D4E7012AA0D177
:1058D000224604B0BDE870400CF08AB8202A13D0EC
:1058E00008DC022A0DD00E2A47D0012A91D1224687
:1058F0000821C0E7212A33D0222A8AD12246172143
:10590000B9E722461021B6E70193FEF783FF01288D
:1059100031D1019B04221B68039294B1934210D1B0
:1059200003AB02AA1321304605F08CFF00280CDAE5
:1059300043421DF015FE234A13504FF0FF35284611
:10594000AFE71623F5E70223F3E7029808B92560CD
:10595000F5E719F085F90028F5D043682360EEE7F4
:1059600022460D2187E716231DF0FAFD154A135034
:105970004FF0FF3095E76A23F6E7224614217AE7D5
:10598000432AB4D0482A7FF444AF2246112172E75B
:105990002246142130466EE722460B21FAE72246C2
:1059A0000F21F7E70193FEF735FF0228E3D1019BB2
:1059B00022461321EEE722460E21EBE7224616216E
:1059C000E8E700BF0C000000F7B50F46062F089E61
:1059D000054611461C4678D005DC002F7ED0012FED
:1059E00026D06D235AE0292FFBD11A2A00F3CB8051
:1059F0000F2AF6DDA2F110010A29F2D801A353F80B
:105A000021F000BFB15B0000B95B0000C15B00008A
:105A1000DF5B0000C95B0000DB5B0000E3590000B6
:105A2000E3590000995B0000E3590000A15B00000E
:105A30000F2A26D006DC022A1AD00D2AD1D1002046
:105A400003B0F0BD192ACCD1FEF7E4FE013880B2D4
:105A5000012800F2C88026B1002C00F0C68023780F
:105A60009BB9B5F8AE3023F40063A5F8AE30E6E795
:105A700033462246092105F0E7FD0028DFDA4342DC
:105A80000CE0334622460A21F5E7082E40F0AD80AF
:105A9000204603F0D9FD031E07DA5B421DF060FDCE
:105AA000544A13504FF0FF30CAE717F08CFF00281C
:105AB00000F09D80B5F8AE3043F40063A5F8AE3039
:105AC00002F068FF85F8B000B9E7012A89D13346B2
:105AD000224603B0BDE8F0400BF036BF242A80DC3C
:105AE0001F2A08DC012A5FD0022A7FF47AAF3346EE
:105AF00022461021BFE7A2F12103032B03D8DFE8E0
:105B000003F0323E3737002300931CB10C2E03D034
:105B1000082E16D016231EE0A06890B117F053FF90
:105B20000090009808B102F035FF042301900DEBBE
:105B300003021321284605F087FD002811DA4342AD
:105B400009E06368002BECD06946201D19F0A4F829
:105B50000028E6D102231DF003FD264A13504FF022
:105B6000FF3738466CE7334622460D21284682E748
:105B70003246214603B0BDE8F040FEF769BE334629
:105B800022461721F2E7432A0ED0482A7FF429AF94
:105B90003346224611216EE7334622461421E5E7BB
:105BA000334622460B21E1E733462246082162E7CD
:105BB000334622460F21D9E7334622461321D5E743
:105BC000334622460E21D1E701233246214628469C
:105BD00003B0BDE8F040FEF7A9BD0023F5E733466A
:105BE00022461621C2E76A2358E7162356E71323F5
:105BF00054E700BF0C000000F0B587B004460E4625
:105C00001546FEF7CBFD032803D006B165B9162370
:105C100000E05F231DF0A4FC234A13504FF0FF3037
:105C200007B0F0BD8023F5E7B4F8AE30DB05F9D559
:105C3000012804D12046FEF7CFFD0228F2D1A38D22
:105C4000012B12D12A68ADF80030082AE38DADF897
:105C5000023028BF0822236B0193694630461DF0AD
:105C600076FB08232B600020DAE7022BCFD100223D
:105C7000ADF80030E38DADF80230059204F1300349
:105C800001AF4034186859683A4603C20833A3424A
:105C90001746F7D12A68182A28BF182269463046C5
:105CA0001DF055FB1823DDE70C000000F0B5038C58
:105CB000012B0E4689B0044615464FF0000114D161
:105CC000436ACDE9021163B30823019301AA0DEBE6
